{
  "contractName": "Splitter",
  "abi": [
    {
      "constant": true,
      "inputs": [
        {
          "name": "",
          "type": "address"
        }
      ],
      "name": "balances",
      "outputs": [
        {
          "name": "",
          "type": "uint256"
        }
      ],
      "payable": false,
      "stateMutability": "view",
      "type": "function"
    },
    {
      "constant": false,
      "inputs": [],
      "name": "kill",
      "outputs": [],
      "payable": false,
      "stateMutability": "nonpayable",
      "type": "function"
    },
    {
      "constant": false,
      "inputs": [
        {
          "name": "bob",
          "type": "address"
        },
        {
          "name": "carol",
          "type": "address"
        }
      ],
      "name": "deposit",
      "outputs": [
        {
          "name": "success",
          "type": "bool"
        }
      ],
      "payable": true,
      "stateMutability": "payable",
      "type": "function"
    },
    {
      "payable": false,
      "stateMutability": "nonpayable",
      "type": "fallback"
    },
    {
      "anonymous": false,
      "inputs": [
        {
          "indexed": false,
          "name": "contractBalance",
          "type": "uint256"
        },
        {
          "indexed": false,
          "name": "bobBalance",
          "type": "uint256"
        },
        {
          "indexed": false,
          "name": "carolBalance",
          "type": "uint256"
        }
      ],
      "name": "LogDeposit",
      "type": "event"
    }
  ],
  "bytecode": "0x6060604052336000806101000a81548173ffffffffffffffffffffffffffffffffffffffff021916908373ffffffffffffffffffffffffffffffffffffffff160217905550610423806100536000396000f300606060405260043610610057576000357c0100000000000000000000000000000000000000000000000000000000900463ffffffff16806327e235e31461006757806341c0e1b5146100b4578063f9609f08146100c9575b341561006257600080fd5b600080fd5b341561007257600080fd5b61009e600480803573ffffffffffffffffffffffffffffffffffffffff1690602001909190505061012e565b6040518082815260200191505060405180910390f35b34156100bf57600080fd5b6100c7610146565b005b610114600480803573ffffffffffffffffffffffffffffffffffffffff1690602001909190803573ffffffffffffffffffffffffffffffffffffffff169060200190919050506101d7565b604051808215151515815260200191505060405180910390f35b60016020528060005260406000206000915090505481565b6000809054906101000a900473ffffffffffffffffffffffffffffffffffffffff1673ffffffffffffffffffffffffffffffffffffffff163373ffffffffffffffffffffffffffffffffffffffff1614156101d5576000809054906101000a900473ffffffffffffffffffffffffffffffffffffffff1673ffffffffffffffffffffffffffffffffffffffff16ff5b565b600080341115156101e757600080fd5b600073ffffffffffffffffffffffffffffffffffffffff168373ffffffffffffffffffffffffffffffffffffffff161415151561022357600080fd5b600073ffffffffffffffffffffffffffffffffffffffff168273ffffffffffffffffffffffffffffffffffffffff161415151561025f57600080fd5b60023481151561026b57fe5b04600160008573ffffffffffffffffffffffffffffffffffffffff1673ffffffffffffffffffffffffffffffffffffffff168152602001908152602001600020600082825401925050819055506002348115156102c457fe5b04600160008473ffffffffffffffffffffffffffffffffffffffff1673ffffffffffffffffffffffffffffffffffffffff168152602001908152602001600020600082825401925050819055507fd5f41a4c53ae8d3f972ea59f65a253e16b5fca34ab8e51869011143e11f2ef203073ffffffffffffffffffffffffffffffffffffffff1631600160008673ffffffffffffffffffffffffffffffffffffffff1673ffffffffffffffffffffffffffffffffffffffff16815260200190815260200160002054600160008673ffffffffffffffffffffffffffffffffffffffff1673ffffffffffffffffffffffffffffffffffffffff1681526020019081526020016000205460405180848152602001838152602001828152602001935050505060405180910390a160019050929150505600a165627a7a7230582094be7403fcca9f2ac20784307879903316bcea1c6322e0bb5800a0dca9b0c3c60029",
  "source": "pragma solidity ^0.4.4;\n\nimport \"./Mortal.sol\";\n\ncontract Splitter is Mortal {\n  mapping(address => uint) public balances;\n  event LogDeposit(\n    uint contractBalance,\n    uint bobBalance,\n    uint carolBalance\n  );\n\n  function deposit(address bob, address carol) public payable returns (bool success) {\n    // Make sure there is in fact ether being sent\n    require(msg.value > 0);\n\n    // check for empty/incorrect addresses\n    require(bob != address(0));\n    require(carol != address(0));\n\n    // Split value between bob and carol\n    balances[bob] += msg.value / 2;\n    balances[carol] += msg.value / 2;\n\n    LogDeposit(this.balance, balances[bob], balances[carol]);\n    return true;\n  }\n\n  function() public {\n    revert();\n  }\n}\n",
  "sourcePath": "/Users/ads1018/DAPPS/adamsoffer/Splitter/contracts/Splitter.sol",
  "compiler": {
    "name": "solc",
    "version": "0.4.18+commit.9cf6e910.Emscripten.clang"
  },
  "schemaVersion": "1.0.1",
  "updatedAt": "2017-11-12T18:16:46.805Z"
}